:400000000080002011000000AD000000AD00000008B5054B1A6803F53F5302331A6000F0A9FA00F045F800BFFA46004010B5054C237833B9044B13B10448AFF300800123AC
:40004000237010BD2881FF1F000000004C280000084B10B51BB108480849AFF300800848036803B910BD074B002BFBD0BDE81040184700BF000000004C2800002C81FF1F60
:400080000881FF1F0000000008B500F057FE28B1054B1B7803F0C003402B02D14022024B1A7000F093FDFEE7FA460040FEE700BF08B5104E104D16E029686B68AC6800221D
:4000C00004E051F8040B43F8040B0432A242F8D1E868002203E0002143F8041B04328242F9D11035013E002EE6D102F071FBFFF7CBFFFEE701000000242B000008B5124A2E
:40010000124B1A60124A136843F40073136000230AE0032B03D80F4A52F8231000E00E490E4A42F8231001332F2BF2D90C4B1A780C4B1A70094A0C4B1A6000F0A7F8002214
:400140000A4B1A6008BD00BF0004FA050CED00E014ED00E000000000AD0000000080FF1FBC7600400481FF1F08ED00E00081FF1FFEE700BFF0B40022174611E050F8276014
:40018000F3B226F0FF0608E001EB420511F812406D78A5550132013BDBB2002BF4D101370F2FEBD9F0BC7047064B1B78DBB203F00701054A11701B09013213704422034BD7
:4001C0001A707047CF0100496E5800407658004008B50A46002102F02CFB08BD08B502F01DFB08BD08B502F019FB08BD38B506221E4B1A705222A3F580731A701C4B1B78E6
:40020000DBB21C4A13704FF4E1621B4B1A8041F25122023B1A80002419250CE0174B1B7803F0010343EA440404F003044FF4F07000F08EFD013D0DB1032CEFD115B90320A1
:40024000FFF796FF0E4A4FF4807313800723137000230C490B704820023108701370053213700222084B1A7038BD00BF004300400F010049A14600402242004025420040DF
:4002800004400040064000400140004038B572B600240CE0254963001A1952000A4423445B00C8589188FFF793FF0134E4B2052CF0D91E4C04F1240004F16401FFF75AFF76
:4002C0001B4A137843F0020313701032137843F002031370174D2B7843F040032B70A2F58632513A137843F010031370124804F1A8010822FFF772FF104804F1B0010A22D2
:40030000FFF76CFF0E4A137843F0080313700D4C01232370FFF76AFF81232370FFF744FF094829460E22FFF75DFF38BD5028000003500140A0430040C2510040F05100409F
:400340002243004000480040B043004019B370B40E460D464FF6FF71731BC25C00230DE081EA020414F0010F04D048F2084484EA510100E0490852080133DBB2072BEFD930
:40038000013DADB2002DE7D1CB439BB2180280B240EA132001E00020704770BC704700BF30B4002306E01C5CE4B2CD5CAC4205D101339BB29342F6D3002000E0022030BC48
:4003C000704700BF004700BF08B58022024B1A7000F0D6FD08BD00BFFA4600402DE9F04182B00C46164602AF27F8022D01230B7048701546A270130ACB7002F104080846F5
:400400001FFA88F1FFF7A2FF04F80800731DC0F30720E054063517236355F11D204689B23A46962300F018FC02B0BDE8F08100BF70B505460E461446084B984203D010B172
:40044000002000F09BFD002004E0013CAB191B5D1844C0B2002CF8D170BD00BF0080004008B501380B2867D8DFE800F0060E161E262E3E36464E565E4942090201F57F3135
:4004800001F5707101225CE04942090201F57F3101F2C131042254E04942090201F57F3101F2C53102224CE04942090201F57F3101F2C931042244E04942090201F57F3167
:4004C00001F5747101223CE04942090201F57F3101F2D131012234E04942090201F57F3101F2D63102222CE04942090201F57F3101F2D231022224E04942090201F57F317E
:4005000001F5757102221CE04942090201F57F3101F57671042214E04942090201F57F3101F5777101220CE04942090201F57F3101F57871042204E0002000F01FFD0222EE
:400540000021012A02D10878C0B200E00020022A03D10B78487843EA0020042A09D10B78487843EA0023887843EA0043C87843EA006008BD08B50A4B1B7803F0C003802B37
:400580000CD10021064B19700220FFF769FF28B102200021FFF764FFFFF714FF08BD00BFFA460040F8B5064603203146FFF758FF0130070204203146FFF752FF07440320F7
:4005C0003146FFF74DFF013000020024254608E003785A1ED2B2FD2A00D801252344DCB20130B842F4D303203146FFF739FF01300002C0080F4B9F4201D0FF0808E04FF414
:40060000004705E000F190431B782344DCB20130B842F7D36442E4B201203146FFF720FF844202D11DB90620F8BD0620F8BD0020F8BD00BFC0FF03002DE9F04FADF51F7D56
:40064000054600F0EBFB10B1002000F097FC00F0F1FA62B64FF0000A57460A24D0460DB9FF2300E02B4652A84FF496710DF2762200F014FB0DB1013CE4B20CB10028EED190
:40068000002840F09982BDF87632062B26D99DF84821012A24D19DF84B819DF84A2142EA0828414608F107029A421BD8B2F5967F1AD84A1D52AB9E5C0A1D9A5C42EA062686
:4006C00006315B5C172B11D108F1040152A889B2FFF73CFEB0420BD100260AE0042608E0042606E0032604E0032602E0042600E00826002E40F0FA819DF84C919DF84921EB
:40070000A2F13103142B00F2C981DFE813F015007D00C701A5001101C70117012C01A5005601BB01C701C701C701C701C701C701C701C701C7012600002F00F0D981B8F187
:40074000000F40F0D8810020FFF72CFFB0FA80F040098DF84C01012227E2002F00F0CE81B8F1030F04D040F22313984540F0C9819DF84EB19DF84D3143EA0B2BB8F1030FBE
:4007800006D007A80DF24F11A8F1030202F046F8A9F14003DBB23F2B08D80BF1806303F50063180110230193402309E0B9F1030F00F2AA810BEB092318024FF4807301938E
:4007C0009B4500D30A26002E40F0A18107A9019AFFF7E6FD0646002840F09B81B9F1030F00F29981019B9A4540F2A28109F510300BEB0020400107AA134419462022FFF7E6
:40080000CFFD06460022D0E1002F00F09381B8F1010F40F09281B9F1030F00F29181BF4B1B681B68C3F30742914502D1C3F3072305E0914501D9002301E04FF480738DF8F2
:400840004C311B0A8DF84D31FF238DF84E3100238DF84F310422A8E1342A15D1002F00F07281B8F1030F40F07181A9F14003DBB23F2B02D84FF0100A01E04FF4907A07A8BF
:400880000021524601F0D5FF002F00F06281B8F1020F40F2618107AB03EB0A000DF24F11A8F1030201F0BAFFC244AAF1030A1FFA8AFAA9F14003DBB23F2B05D800F034FB7E
:4008C00040234FF0100803E04FF480734FF49078C24540F044819DF84EA19DF84D2142EA0A2A9A4500D30A26002E40F03D81B9F13F0F0FD80AEB092292B2884B1B681968DF
:40090000C1F30F2311F0FF0F01D001339BB29A42C0F02C814846514607AA434600F088FA00B10A2600F054FB4FF0000A52463CE1002F40F03F810426002236E1002F00F0A7
:400940001A810AEB0803B3F5967F00F2178107AB03EB0A0053A9424601F060FFC2441FFA8AFA002221E1B8F1060F40F00A8104AB6B4A92E8030083E803000623013BDBB296
:40098000674A1A44117A1A1D52A8825C914203D1002BF3D1334600E00423042B0AD053AB04AA92E8030083E803004FF0000A01270822FAE01E460022F7E0002F00F0E48083
:4009C000B8F1030F40F0E3809DF84EB19DF84D3143EA0B2BA9F14003DBB23F2B10D84FEA0B11BBF13F0F01D8334600E00A23002B40F0D0804B481022FFF71AFD019011E036
:400A00000BEB09210902BBF1FF0F01D8334600E00A23002B40F0C18000204FF48072FFF707FD0190B9F13F0F0FD809F510320BEB02225201002306E0995C01980144C9B213
:400A4000019101339BB21F2BF6D9B9F1030F13D1BBF1FF0F10D105200021FFF701FD019B181A00F0FF0906200021FFF7F9FCC0EB090000F0FF030193019B5B428DF84C3168
:400A8000012292E00020FFF78DFD10B98022264B1A7000F075FA0426002286E0234B1B68002B7DD0002F7ED08DF80820ADF80A8053AA0392002104910591069202A804A9FB
:400AC0009847BDF81420B2F5937F03D3069953AB994205D0069B03B92AB99DF8106064E00E26002261E00E2600225EE000225CE00426002259E00426002256E004260022ED
:400B000053E00426002250E0092600224DE000224BE0002249E0002247E000BF0C81FF1F0C29000000800040FA4600404481FF1F00223AE00426002237E00426002234E0E6
:400B40000426002231E0042600222EE0042600222BE00426002228E00426002225E04FF0000A0326524620E000221EE04FF0000A0A26524619E00426002216E00326002201
:400B800013E00426002210E0042600220DE0042600220AE01E46002207E01E46002204E00526002201E005260022304652A9FFF715FC01E04FF0000A002D3FF450AD002F17
:400BC0007FF44DAD0DF51F7DBDE8F08F38B50020FFF7E8FC08B1062400E00024134D2B68002001461A68FFF723FC6B681B78C01AC0B24042C0B2834202D12B681B6813B9E7
:400C0000002000F0BBF90A4B1B7803F0C003402B00D024B10020064B1870FFF70DFD0120FFF70AFDFFF7D0FB38BD00BF0C81FF1FFA46004008B562B60020022100F006FC81
:400C40000122014B1A7008BD4881FF1F08B5012000F0BEFC08BD00BFF8B505460F46164603EB83035C00A4B202202946402200F067FC04E0012000F08BF9013CA4B2022080
:400C800000F03EFC08B9002CF4D1022000F038FC10B137800020F8BD1020F8BD2DE9F04180460E46174603EB83035C00A4B2402900D94026204B1B7833B916E0012000F063
:400CC00067F9013DADB200E0254600F003FC08B9002DF3D100F0FEFBA8B100F001FCFFF7B5FF0022144B1A700DE000F0F9FB50B100F0F0FB38B1FFF7A9FF04E0012000F0FE
:400D000047F9013CA4B2012000F0FAFB012801D0002CF3D1012000F0F3FB012807D14146324600F06DFC38800020BDE8F08100233B801020BDE8F0814881FF1F024B1878C2
:400D400000F00100704700BFF1510040000000000230800803D000BF01380046FCD17047EFF3108072B6704780F31088704700BF10B500F07BF900F029FAD0B900F068FA52
:400D80000446072812D102E0012000F017F90A4B1B7813F0020FF7D0074B1B7813F0020F04D0054B1B789B0800D1002400F034FA00E00424204610BD2247004010B500F012
:400DC00055F900F003FA10BB012000F0E1F9072818D11048022100F05BF902280AD102E0012000F0EBF80C4B1B7813F0020FF7D0002409E0084B1B7813F0020FE9D04FF08C
:400E0000FF3401E04FF0FF3400F006FA00E00424204610BD5C81FF1F2247004008B5FFF7A7FF034610B9FFF7C9FF0346184608BD2DE9F041441FE4B23A2C01D9002500E043
:400E4000012510F0800F00D00125412800D901253F2803D8B1F5807F06D808E0802900D90125102B02D102E0012500E0012502B90125002D50D1984616460F46044600F0F6
:400E8000A5F9002847D1204639463246434600F019F9064607283AD102E0012000F08EF81F4B1B7813F0020FF7D01D4B1B7813F0020F06D01A4B1B789B0805D04FF0FF36CC
:400EC00003E04FF0FF3600E02E4606BB154B204639461A785B7800F035F9072804D0064615E0012000F06AF80D4B1B7813F0020FF7D00B4B1B7813F0020F06D0084B1B7888
:400F00009B0804D04FF0FF3601E04FF0FF3600F083F9354600E004252846BDE8F08100BF224700405C81FF1F08B5FFF719FF0F4A137843F0080313701032137843F008031F
:400F40001370C8220A4B1A700A4A137843F0100313701032137843F010031370064B1B7813F0200FFAD0FFF7FFFE08BDA043004001470040AC4300400047004001BE704778
:400F8000024A137843F0010313707047F646004010B5044605E0084B1868FFF7D9FEA4F50044B4F5004FF6D8034B586800FB04F0FFF7CEFE10BD00BF1481FF1F08B5034B2D
:400FC0001B7A03FB00F0FFF7C3FE08BD1481FF1F08B5FFF7C5FE00BF00BF00BF00BF00BF00BF00BF00BF00BF00BF00BF00BF00BF00BF00BF00BF064A13889BB243F0040367
:4010000013801388BFF36F8FFFF7AEFE08BD00BF0048004070B504460E46074B1D681F2802D90020FFF7AAFF04F01F04103455F8240045F8246070BD08ED00E038B50446E3
:401040000D46072902D90020FFF798FF1F2C02D90020FFF793FF04F01F0000F1604000F564406D01EDB2057038BD00BF08B5FFF777FE064A137843F0080313701032137893
:4010800043F008031370FFF76FFE08BDA043004070B506460D4600240CE00120FFF78EFF064B1B7813F0010FF7D0054B1B7833550134E4B2AC42F3D3204670BD22470040C8
:4010C0002047004070B41D4C247814F0020F2CD01B4CB6252570D5252570022525700234247814F0020F22D1154C2070002404E0165D134D2E700134A4B29C42F8D3B3F5CD
:40110000807F16D13F2816D800F5103001EB00214801002305E01A5CD2B209490A7001339BB21F2BF7D9072006E0042004E0092002E0072000E0072070BC704722470040A6
:401140002047004030B4104C247814F0020F15D00E4CB6252570D8252570052525700234247814F0020F0BD1084C2070080A2070C9B2217022702370072002E0042000E050
:40118000092030BC704700BF22470040204700400C4B1B7813F0020F0FD00B4BB6221A70E1221A700E221A7002331B7813F0020F05D1054B1870072070470420704709200C
:4011C000704700BF224700402047004010B5FFF7C7FD0F4B1B78A3B901220D4B1A700D4B1B6813F0010F0ED00A4A136823F00103136000BF00BF00BF0122054B5A600024A9
:4012000002E0042400E00024FFF7AEFD204610BD4C81FF1F0400084008B5FFF7A1FD0A4B00221A705B68012B0AD1084A136843F00103136000BF00BF00BF0022024B5A609C
:40124000FFF792FD08BD00BF4C81FF1F04000840074B1B7813F0020F08D0064BB6221A70E0221A700D221A7007207047042070472247004020470040F8B5FFF771FD0646FF
:40128000384A137843F0010313701032137843F0010313700125344B1D700227943B1F7002F5E2521B32137803F07F0313700020FFF784FE2D4C237803F0F90323702C4A88
:4012C000137803F0DF03137023782B4323702846FFF774FE2820FFF771FE264B1A7802F07F021A701A7802F0BF021A7023783B4323703846FFF762FE237843F00403237035
:4013000000241D4B1C7001331C703046FFF72CFD17201A49FFF77EFE17200721FFF78EFE15201749FFF776FE15200721FFF786FE18201449FFF76EFE18200721FFF77EFEB4
:4013400020461149FFF766FE20460721FFF776FE28460E49FFF75EFE28460721FFF76EFEF8BD00BFA54300409D6000409443004012600040F8510040846000403D1B0000A5
:40138000391B00004D190000C91A0000011B000010B5002304E001241F4AD4542344DBB2002BF8D01D4B4FF400021A604FF080721A6001221A6002221A600022184B1A70EF
:4013C00011B1012904D007E00222164B1A7006E00322144B1A7002E00322124B1A70124B18700023114A1370114A1370114A1370114A1370114A1370114A13700322114B98
:401400001A708022203B1A700120FFF7A1FC04220D4B1A7010BD00BFFC81FF1F00E100E06381FF1F09600040D981FF1F6081FF1FF181FF1F6281FF1FEC81FF1F6181FF1FB9
:40144000D481FF1F286000401260004038B505460C46064B1B7823B9FFF70EFF0122034B1A7028462146FFF793FF38BD5481FF1F002304E001210E4AD1540B44DBB2002B45
:40148000F8D000230B4A13700B4A13700B4A13700B4A13700B4A13700B4A13700B4A137003220B4B1A708022203B1A70704700BFFC81FF1F6381FF1F6081FF1FF181FF1F2B
:4014C0006281FF1FEC81FF1F6181FF1FD481FF1F28600040014B1878704700BF6081FF1F064B1B7813F0FF0F05D0044B1878C0B200221A7070470020704700BF6281FF1FBF
:4015000000EB40008000024B18444078704700BF6881FF1F0138C0B207280CD80001C0B2064BC25C02F00F020133C35C43EA0220023880B270470020704700BF0C60004078
:4015400070B4451EEDB2072D38D82D01EDB21C4E2E4400EB40039B001A4C2344DB889BB2C3F500739A4207D900EB40039B002344DA88C2F5007292B200EB40039B00114C06
:401580002344DB7843EA12230F4C2B55D3B201342B5529B907E0CC5C347001339BB200E000239342F7D3074A41000B189B00134400245C705B79DBB2044AAB5470BC70471A
:4015C000886000406881FF1F0C6000400E600040431EDBB2072B0ED830B41B01DBB206494400221892000A44002555705279D2B202495A5430BC70476881FF1F0E60004098
:401600002DE9F041431EDBB2072B19D8D1B190460D4606461B01DBB20C4F1F44FFF77AFF0446804500D84446002303E03A78EA5401339BB2A342F9D33046FFF7C9FF02E0D6
:40164000002400E000242046BDE8F081886000401E4B19781E4A13880B449BB21380002311E003F1804101F5C0411A4A50680078C0B208705168013151600133DBB211883E
:40168000013989B21180134A128892B20AB1072BE7D90E4A1278D2B2082A00D05BB10E490A7882F080020A700F210C4A117002210B4A117004E0022208490A7008490A70E3
:4016C000024A1370074A1370704700BFD481FF1FDA81FF1FE081FF1F6581FF1FF881FF1F6381FF1FDC81FF1F0222074B1A708022064B1A700F22064B1A700023054A1370D0
:40170000054A1370012070476381FF1F6581FF1FF881FF1FD481FF1FDC81FF1F08B5FFF797FF08BD10B41A4B197801F00F010239C9B2184A13880B449BB21380002013E0B6
:40174000154B5C6800F1804202F5C0421278D2B222705A6801325A600130C0B20139C9B21A88013A92B21A800B4B1B889BB20BB10029E5D1094B1970094A137883F08003A5
:4017800013700B22074B1A705DF8044B704700BF29600040DA81FF1FE081FF1FDC81FF1F6581FF1FF881FF1F0623064A1370064A13708022054B1A700022054B1A70012044
:4017C000704700BF6381FF1FF881FF1F6581FF1FDC81FF1F064B9B6843B1054B9A6810709A6804490988518000229A60704700BFE081FF1FDA81FF1F08B5134B1A78D2B2D5
:401800001A701B78DBB213F0800F02D00F4A137008BD0220FFF7DEFF0D4B1B7803F06003202B05D0402B06D043B900F0BDFD06E000F0A0FF03E000F07DFF00E0002010B92F
:401840000322024B1A7008BD28600040F881FF1F0060004008B5084B1978084A13880B449BB213800022064B1A700120FFF7B2FF0322044B1A7008BDD481FF1FDA81FF1F77
:401880006381FF1FF881FF1F08B50B4B1B78DBB2042B06D0062B07D0022B0BD1FFF7DAFF08BDFFF73FFF08BD0320FFF793FF0322024B1A7008BD00BF6381FF1FF881FF1FF5
:4018C00008B50022044B1A700120FFF783FF0322024B1A7008BD00BF6381FF1FF881FF1F08B50B4B1B7813F0FF0F07D0084A137843F0800307490B70002313700022064B79
:401900001A700120FFF766FF0322044B1A7008BDEC81FF1F086000406381FF1FF881FF1F08B5094B1B78DBB2042B06D0062B07D0022B07D1FFF7F2FE08BDFFF7C1FF08BDA9
:40194000FFF7CEFF08BD00BF6381FF1F08B5284B1B78DBB213F0100F48D013F0800F0CD003F00F03012B16D1FFF746FF214B1B7813F0800F11D1012312E013F0400F03D025
:40198000FFF7CEFF01230BE013F0200F07D0FFF77BFF012304E0002302E0002300E0002323B3134B1B7813F0800F1FD1124B1B78124A12781343124A13701278D2B29A426B
:4019C00014D10C4B1B78DBB2094A127812F0800F07D1084B1B78DBB2054A1370137803F00F03044A1278D2B29342EAD108BD00BF28600040F881FF1F6581FF1FDC81FF1F22
:401A0000296000400022064B1A80064B9B682BB1044A916800230B7092685380704700BFDA81FF1FE081FF1F08B5104B1B889BB213B9FFF759FE16E002220D4B1A70002241
:401A40000C4B1A70FFF7DEFF0B4B1A78013B1B7843EA0223054A128892B29A4201D9034A1380FFF7F5FD012008BD00BFE081FF1F6381FF1F6581FF1F0760004008B504224A
:401A80000C4B1A7080220C4B1A70FFF7BBFF0B4B1A78013B1B7843EA0223094A128892B29A4201D9064A13800B22064B1A70012008BD00BF6381FF1F6581FF1F07600040E5
:401AC000E081FF1FF881FF1F0A4B1B780A4B1B7B03F00303012B04D0074AD37B83F08003D3730122044B5A73044A137803F0FE03137070470E6000406881FF1F0B60004083
:401B00000A4B1B780A4B1B7E03F00303012B04D0074AD37E83F08003D3760122044B5A76044A137803F0FD03137070471E6000406881FF1F0B600040704700BF08B5FFF714
:401B400097FC08BD08B50B4B18780138C0B200F0BBF9094B1B78DBB200EBC30042690749CB5C02EBC3035B68596A0B78044A1380516008BD6081FF1F04600040D881FF1FAA
:401B8000E081FF1F08B50D4B18780138C0B200F09BF90B4B1B78DBB200EBC30042690949CB5C02EBC3035B68DB69597813F8022B42EA012204490A804B6008BD6081FF1F32
:401BC00004600040D881FF1FE081FF1F10B50022194B1A80194B18780138C0B200F074F9174B1B78DBB2174A1278D2B200EBC200416902BB1448825C01EBC20149685A1E53
:401C0000D2B2022A17D803F10053013B01EBC3000E4A1278D2B211F8333093420BD3406802EB4202920081184C68034B5C60825A1A808A689A6010BDE081FF1F6081FF1FDF
:401C40000360004004600040D881FF1F0260004008B55F4B1B78DAB25E4B1B7813F0800F4ED05D4B1B78013B052B00F29280DFE803F0222C3C909003584B1B78DBB2212B71
:401C80000AD1FFF75FFF564B1B889BB2002B00F08280FFF7C9FE08BD504B1B78DBB2222B7BD1FFF76FFF4E4B1B889BB2002B76D0FFF7BAFE08BDFFF789FF494B1B889BB29E
:401CC000002B6ED0FFF7B0FE08BD002A6BD1454B1B7813F0FF0F68D1414901230B80424B13444B60FFF7A0FE08BD002A5FD13C4901230B803D4B13444B60FFF795FE08BDB8
:401D0000344B1B7813F0800F53D1334B1B78DBB20A2B0DD00B2B2ED0092B4CD1FFF756FF2F4B1B889BB2002B47D0FFF7A7FE08BD002A44D12B4B1B7813F0FF0F41D1274B72
:401D40001B78DBB228498B548B5C2949895CDBB28B4203D20021264B995409E0244B9B5CDBB2012B04D9204B9B5CDBB220498B54FFF71AFD08BD32BB1A4B1B78DBB2012B7B
:401D800023D8184B1B78DBB218498B54FFF70CFD08BD002008BD002008BD002008BD002008BD002008BD002008BD002008BD002008BD002008BD002008BD002008BD0020AA
:401DC00008BD002008BD002008BD002008BD00BF04600040006000400160004003600040E081FF1F026000400482FF1FFC81FF1F0082FF1FF0B50024012052E0254604F1AC
:401E0000804303F5C1430C221A70024600EB40039B0027490B445B7913F0FF0F0FD000EB40039B000B441B7913F0800F03D00C21204BE15406E008211E4BE15402E0802189
:401E40001C4BE1541A4F53009918890039440E89C6F30726DFF86CE005F80E600E89F6B20EF1010E05F80E60CE88F6B20EF1790E05F80E60CE88C6F307260EF1010E05F85A
:401E80000E60C988C9B20C4EA95513449B003B44DB88C3F30723094AAB540130C0B21034E4B214F0800FA9D0FF22054B1A70F0BD6881FF1F0E60004084600040856000405B
:401EC0000A6000400C600040074B1B78074A02EBC30253681A7A824203D903EBC003D86870470020704700BFD981FF1F58290000F8B54C4B1B7813F0FF0F00F09280494B00
:401F000018780138C0B2FFF7DFFF057AC068002384E00178444A525C444C645CD2B2A24279D0414A525CD2B24478A24273D1404A1278D2B291426ED1847804F07F02511E83
:401F40000901C9B2C67806F0030614F0800F12D002EB4204A400374F3C4401276770BE4201D1072600E00D2602EB4204A400314F3C44667111E002EB4204A4002D4F3C44CA
:401F800000276770012E01D1052600E0092602EB4204A400274F3C4466710126264C0E55B0F804C0234F02FA06FE0EEB0206B600BC19A4F808C090F802C084F804C090F868
:401FC00003C007F806C00026E6702689C6F30726DFF870C001F80C602689F6B20CF1010C01F80C60E688F6B20CF1790C01F80C60E688C6F307260CF1010C01F80C60E488EA
:40200000E4B20E4E8C55724492003A44D288C2F307220B4C0A5508300133DBB2AB42FFF478AFF8BD6081FF1FD881FF1F6481FF1F046000406881FF1F0E600040846000406E
:40204000856000400C600040034B1A78034B03EBC2035868704700BFD981FF1F5829000008B5074B18780138C0B2FFF72DFF28B14268127900EBC203586908BD002008BDEA
:402080006081FF1FF8B500220EE06B4E53009D18AD00741900217155A1706170E17061712181A1720132D2B2082AEED940B90AE000226249CA546249CA540133DBB200E0E0
:4020C0000023002BF4D05F4B1B7813F0FF0F00F0B2805C4B18780138C0B2FFF7F5FE4368DB7913F0400F05D0574A137843F00103137004E0544A137803F0FE031370057A84
:4021000001246EE0C168002367E08A7802F07F0294425FD1264604EB44029200464F3A44128992B28F88BA4206D204EB44029200DFF804E1724417810A78404FBA5CD2B292
:402140004F78BA4246D1CF7807F0030791F90220002A18DA06EB46029200DFF8DCE072444FF0010E82F801E0774502D14FF0070E01E04FF00D0E06EB460292002E4F3A44D4
:4021800082F805E017E006EB46029200DFF8A8E072444FF0000E82F801E0012F02D14FF0050E01E04FF0090E06EB46029200224F3A4482F805E091F802C01F4F4FEA460E56
:4021C0000EEB060292003A4482F804C0CA787644B600BA5508310133DBB2AB4295D30134E4B2082C8ED9C06800220CE0837803F07F0310F8084B03EB43039B0013490B449F
:402200009C700132D2B2AA42F0D3FFF729FF104B1860002001220AE0074C5300991889002144C8800B89184480B20132D2B2082AF2D9FFF7DFFDF8BD6881FF1FD881FF1FA6
:402240006481FF1F6081FF1F6181FF1F7081FF1FF481FF1F38B5144B1B7803F07F035A1ED2B21101C8B2072A1CD8104C5D00EA1892002244917841F0010191700021D17067
:40228000517841F002015170137913F0800F03D08D22074BC25402E08922054BC254FFF783FA38BD002038BD046000406881FF1F0E600040244B1B7803F07F035A1ED2B21C
:4022C0001101C9B2072A3CD810B55A001A4492001E480244907800F0FE0090700020D0701B4C085D00F07F000855507800F0FD005070127912F0800F10D003EB43039B0023
:40230000124A13445B78DBB2012B03D10C22114BCA5413E00D220F4BCA540FE003EB43039B000A4A13445B78DBB2012B03D10822084BCA5402E00922064BCA54FFF734FA44
:4023400010BD0020704700BF046000406881FF1F0C6000400E60004010B50E4B1C78E4B20D4B18780138C0B2FFF7AEFD43681B799C420BD264B9094A135DDBB208490B5561
:40238000084B1B78DBB21355012010BD002010BD002010BD046000406081FF1FD881FF1F6481FF1F0260004010B50022974B1A80974B1B7813F0800F00F0B480954B1B78BA
:4023C000DBB20A2B00F28D81DFE813F06E008B018B018B018B018B010B008B0199008B01A1008D4B1B78DBB2012B09D1FFF72CFE4268864B5A6012221A80FFF715FB10BDD6
:40240000854B1B78DBB2022B16D103F1804303F5C0431878FFF758FD002800F0648142687A4B5A605A68D1785A68927842EA01221A80FFF7F9FA10BD774B1B78DBB2032B5F
:4024400005D02EE00A7811440133DBB201E000237249734A1278D2B29A4203D90A7812F0FF0FEFD16E4B1B78DBB2EE2B00D16D496B4B1B7813F0FF0F07D0694B1B78DBB2CF
:40248000694A127C934200D168490B7813F0FF0F00F02B810B785D4A13805160FFF7C4FA10BD00F067F910BD594B1B7813F0030317D0022B40F01B8154490B805C4B1B78C6
:4024C00003F07F0303EB43039B005A4A13449A78D2B2594B1A7000225A704B60FFF7A4FA10BD4A4902230B80544B1A78D2B2524B1A7000225A704B60FFF796FA10BD434B4A
:4025000001221A804E4A5A60FFF78EFA10BD3F4A01231380464B1B784A490B445360FFF783FA10BD3B4B1B78013B0A2B00F2E180DFE813F04700DF00A400DF000B00DF00CE
:40254000DF00DF001300DF003000354B1B78DBB23D4A1370FFF728F910BD314B1B7803F0FF041BB1601EC0B2FFF7AEFC04B110B9002C40F0C080324B1B78DBB29C4206D021
:402580002F4B1C700120314B1870FFF77BFDFFF70BF910BDFFF7E0FE002800F0AE80244B1C78E4B22A4B1C700122284B1A70FFF79FFC244B1B5DDBB2264A1355FFF7F4F828
:4025C00010BD134B1B7803F00303012B44D073B1022B40F0948003F1804303F5C0431B7813F0FF0F40F08D80FFF764FE10BD0C4B1B78DBB2012B40F08680104A137803F0E6
:40260000FD031370FFF7D0F810BD00BFE081FF1F006000400160004003600040202A00000260004044290000EC2A0000142A0000046000406881FF1F5881FF1F6181FF1F1B
:402640006081FF1FD881FF1FEC81FF1F6281FF1FF181FF1F6481FF1F314B1B7813F0FF0F53D1304B187802331B78DBB22E49CA5C22EA0002CA54FFF797F810BD2B4B1B78FD
:4026800003F00303012B1AD063B1022B3FD103F1804303F5C0431B7813F0FF0F39D1FFF7D9FD10BD1F4B1B78DBB2012B33D1204A137843F002031370FFF776F810BD184BC3
:4026C0001B7813F0FF0F28D1164B187802331B78DBB21549CA5C22EA0002CA54FFF764F810BD002010BD002010BD002010BD002010BD002010BD002010BD002010BD00208D
:4027000010BD002010BD002010BD002010BD002010BD002010BD002010BD002010BD00BF0460004002600040F081FF1F006000406181FF1F08B50B4B1B7813F0800F0CD009
:40274000094B1B78DBB2012B09D1084B084A5A6012781A80FFF768F908BD002008BD002008BD00BF0060004001600040E081FF1F1C29000008B5124B1B7803F00303012BE0
:4027800002D0022B04D00FE00E4B1B78DBB20CE00C4B1B7803F07F0303EB43039B000A4A13449B78DBB200E00023084A1268D35C032B02D1FFF74CFA08BD002008BD00BFD5
:4027C00000600040046000407081FF1FF481FF1F0E4B70B51E460E4C0025E41AA410A54204D056F8253098470135F8E700F088F9084B094C1E46E41AA4100025A54204D07F
:4028000056F8253098470135F8E770BD0C2B00000C2B00000C2B0000142B000010B5431E0A44914204D011F8014B03F8014FF8E710BD03460244934202D003F8011BFAE75B
:4028400070470000002C0000070000000000000000510040700000000140001000140140000800400140000A004C0140000200500140200001450040025200400107014091
:4028800001090140040A0140010B01400117014001190140034001400241014004420140044301400347014003480140024C0140015101407E0261017C41EE08AF20B820F1
:4028C000BE10D804DF011F20EE0AEE0A33803640CC30A640A7805320A640A780D420A640A780AF20EE1008080F40C20CAE40AF80EE50AC08AF40000A000101000100000067
:402900000100000100000000C00000006930122E00280101981276345012000028000000000104000100000000000000000143595553420000003030303031000000000076
:402940000000000012034D0053004600540031003000300001000000010000006029000001000000EC2A0000010000007029000001000000C02A0000020000009429000091
:4029800001000000A42900000000000090290000030000000000010340000300000082034000030001000000AC29000000000000E029000000000000D429000000000000A2
:4029C0000000000001000000EC29000001000000D22A0000410000001082FF1F0C82FF1F410000005482FF1F0882FF1F240005010900A1000900A1000900150025FF75080D
:402A0000954091020900150025FF750895408102C0C000000A0330003000300031000000040309042C0343007900700072006500730073002000530065006D00690063008C
:402A40006F006E0064007500630074006F0072002203500053006F0043003300200042006F006F0074006C006F006100640065007200280345006D0062006500640069009F
:402A80007400200045006C0065006300740072006F006E0069006300730022035000690053006F004300200042006F006F0074006C006F00610064006500720000000000F9
:402AC0000902290001010480FA09040000020300000209211101000122240007050103400001070582034000010000001201000200000008B4041DB7013003048001000006
:402B0000F8B500BFF8BC08BC9E46704751000000FD000000F8B500BFF8BC08BC9E4670472D000000382B00000881FF1F200000007001000000000000000000004428000015
:402B4000482800000000E02EC05D00001800000000366E010000000000000000000000000000000000000000000000000000000000000000000000000000000000000000FD
:402B80000000000000000000000000000000000000000000000000000000000000000000000000000000000000000000000000000000000000000000000000000000000015
:402BC00000000000000000000000000000000000000000000000000000000000000000000000000000000000000000000000000000000000000000000000000000000000D5
:402C000000800020112C0000197300001973000080B500AF04F084FB10B5054C237833B9044B13B10448AFF300800123237010BD4081FF1F00000000080B0100084B10B59B
:402C40001BB108480849AFF300800848036803B910BD074B002BFBD0BDE81040184700BF00000000080B01004481FF1F0881FF1F0000000080B594B000AF62B603F0A6F9B6
:402C800007F076FE0346002B12D007F13003184603F0C0F90346002B0AD007F130023B461046194603F056FA3B46184604F024FBE6E700BFF0B58BB004AF3C4684E80F001F
:402CC0000023FB757B78BB757B88BB823B78FB74FB7C0F2B00F0A2800F2B18DC0A2B6BD00A2B0BDC062B3ED0062B02DC042B30D029E1082B41D0092B54D024E10C2B6FD0A1
:402D00000C2B63DB0D2B75D00E2B7DD01BE1FB2B00F0D480FB2B0FDC162B00F0F180162B03DC102B00F084800DE1172B00F08A80182B00F0918006E1FD2B00F0D980FD2BC5
:402D4000C0F29480FE2B00F0F180FF2B00F0F880F9E0BA7DBB8A104619463A6B00F026FB0346FB75EFE0BA7DBB8A104619463A6B00F070FB0346FB75E5E0BB79C3F302038B
:402D8000DBB21D46FC793B7AB97DBA8A00933B6B0193084611462A46234600F0C5FB0346FB75D0E0BA7DBB8A104619463A6B00F037FE0346FB75C6E0BA7DBB8A1046194690
:402DC0003A6B00F097FE0346FB75BCE0BA7DBB8A104619463A6B00F0F7FE0346FB75B2E0BA7DBB8A104619463A6B00F057FF0346FB75A8E0BA7DBB8A104619463A6B00F02B
:402E0000B7FF0346FB759EE0BA7DBB8A104619463A6B01F017F80346FB7594E0BA7DBB8A104619463A6B01F077F80346FB758AE0BA7DBB8A104619463A6B01F0D7F803466A
:402E4000FB7580E0BA7DBB8A104619463A6B01F0F7FC0346FB7576E0BA7DBB8A104619463A6B01F053FD0346FB756CE03B79C3F30303DBB21E463B79C3F30213DBB21D46CD
:402E80007B79C3F30303DBB21C467B79C3F30213DBB21946BB7AC3F30503DBB2BA7D00910193BB8A02933B6B0393104631462A46234601F0B1FD0346FB7544E07B7AC3F309
:402EC000C203DBB21D467B7AC3F30203DBB21C46FB68C3F317031946BA7DBB8A0091104619462A46234602F097FF0346FB752AE0BB8A1846396B02F07FFF0346FB7522E094
:402F00003B79C3F30303DBB219463B79C3F30213DBB21D46BA7DBC8A3B6B009310462A46234601F0CDF80346FB750CE0BA7DBB8A104619463A6B00F00BF80346FB7502E022
:402F40000CF074FC00BFFB7D18461C37BD46F0BD80B586B000AF03463A60FB710B46BB803B6800221A600023BB7500237B7500233B750023FB740023BB7400237B740023C7
:402F80003B740023FB730023BB7300237B730023FB75FB79082B00F2048201A252F823F0C52F00001B3000002330000079300000CF300000A3330000A33300001F31000087
:402FC000B13200003B681B6843F008023B681A603B681B6843F480123B681A603B681B6843F020023B681A603B681B6843F080023B681A600823BB7308237B733B681B683A
:403000007A7B12021A433B681A603B681B68BA7B92031A433B681A60C3E13B6884221A60BFE17B7D43F001037B757B7D43F002037B757B7D43F004037B757B7D43F0080305
:403040007B757B7D43F010037B757B7D43F020037B757B7D43F040037B757B7D63F07F037B753B7D1A047B7D1B021A43BB7D13431A463B681A6094E1BB7C43F00103BB7474
:40308000BB7C43F00203BB74BB7C43F00403BB74BB7C43F00803BB74BB7C43F01003BB74BB7C43F02003BB74BB7C43F04003BB74BB7C63F07F03BB747B7C1A04BB7C1B0246
:4030C0001A43FB7C13431A463B681A6069E13B7C43F001033B743B7C43F002033B743B7C43F004033B743B7C43F008033B743B7C43F010033B743B7C43F020033B743B7C41
:4031000043F040033B743B7C63F07F033B74FB7B1A023B7C13431A463B681A6041E1BB880B2B00F23B8101A252F823F05D310000B13100000532000059320000AD320000B9
:40314000AD320000AD320000AD320000AD320000AD320000AD320000AD32000004F058FD0346042B18D801A252F823F08131000087310000993100008D31000093310000CF
:403180000123FB7508E00223FB7505E00323FB7502E00423FB7500BF04F02EFD03460133FA7D1204134343F400223B681A607EE00AF04EF90346042B18D801A252F823F04F
:4031C000D5310000DB310000ED310000E1310000E73100000123FB7508E00223FB7505E00323FB7502E00423FB7500BF0AF024F903460133FA7D1204134343F480123B68CE
:403200001A6054E009F046FD0346042B18D801A252F823F0293200002F32000041320000353200003B3200000123FB7508E00223FB7505E00323FB7502E00423FB7500BF75
:4032400009F01CFD03460133FA7D1204134343F4C0123B681A602AE009F0C6FA0346042B18D801A252F823F07D3200008332000095320000893200008F3200000123FB7550
:4032800008E00223FB7505E00323FB7502E00423FB7500BF09F09CFA03460133FA7D1204134343F400123B681A6000E000BF75E0BB88052B74D801A252F823F0D5320000CF
:4032C00037330000993300009933000099330000993300003B681B6843F001023B681A603B681B6843F010023B681A603B681B6843F020023B681A603B681B6843F40072CC
:403300003B681A603B681B6843F400623B681A603B681B6843F480423B681A603B681B6843F480323B681A603B681B6843F400223B681A6031E03B681B6843F003023B687E
:403340001A603B681B6843F010023B681A603B681B6843F060023B681A603B681B6843F400723B681A603B681B6843F480523B681A603B681B6843F480423B681A603B685C
:403380001B6843F400323B681A603B681B6843F400223B681A6000E000BF01E000BF00E000BF012318461837BD4680BD80B584B000AF03463A60FB710B46BB800023FB73F5
:4033C000FB79062B40D801A252F823F0E9330000EF330000F533000013340000313400003D3400004334000005F0DAF82CE005F0EBF829E0BB88002B02D0012B04D023E01F
:40340000002005F0FBF803E0022005F0F7F800BF1AE0BB88002B02D0012B04D014E0002005F00CF903E0042005F008F900BF0BE0BB88DBB2184605F021F905E005F09AF943
:4034400002E005F0B1F900BFFB7B18461037BD4680BD00BF80B584B000AF03463A60FB710B46BB800023FB73FB79072B57D801A252F823F0953400009B340000A13400002C
:40348000BF340000DD34000007350000133500001935000004F010FF41E004F021FF3EE0BB88002B02D0012B04D038E0002004F031FF03E0022004F02DFF00BF2FE0BB880E
:4034C000002B02D0012B04D029E0002004F042FF03E0042004F03EFF00BF20E0BB88012B08D0022B0AD0002B00D018E0002004F051FF07E0042004F04DFF03E0082004F08B
:4035000049FF00BF0BE0BB88DBB2184604F062FF05E004F0E7FF02E004F0FEFF00BFFB7B18461037BD4680BD90B585B000AF0446084611461A462346FB710346BB800B4648
:40354000BB711346FB700023FB73FB79092B3AD0092B0BDC012B1AD0012B02DC002B13D053E0042B16D0072B1ED04EE0FD2B36D0FD2B04DC0B2B2CD00C2B2DD045E0FE2B4F
:4035800030D0FF2B31D040E008F0BCFF3DE008F0C9FF3AE0B979FA7897F82030084611461A4600F039F830E0BB88002B02D0012B04D02AE000200BF0EDFA03E002200BF011
:4035C000E9FA00BF21E0BB88DBB218460BF022FB1BE009F02BF818E009F03CF815E008F04DFE12E008F064FE0FE0BB88013B9BB21846012108F076FE08F024FF03461A46B7
:403600007B6A1A600123FB7300BFFB7B18461437BD4690BD00000000B0B5ADF5A46D00AF044608461146FB1D22461A70BB1D02461A707B1D0A461A7007F58163BC4A19464A
:40364000FF23084611461A460DF04AFA07F54273B84A1946FF23084611461A460DF040FA07F50273B44A1946FF23084611461A460DF036FA07F58473B04A1946FF23084694
:4036800011461A460DF02CFA07F1080318460021FF220DF030FA002387F80735FB1D1B78002B65D10023C7F814355CE007F58162D7F8143513441B7818460CF0DFFB0446B6
:4036C0000D46BB1D1B7818460CF0D8FB02460B461046194694A3D3E900230CF06FFD02460B46204629460CF03FFC02460B4614461D467B1D1B7818460CF0C0FB02460B463F
:40370000204629460CF07EFA02460B4607F5A361C1E9002307F5A363D3E9000182A3D3E900230CF0B1FE0346002B06D07EA3D3E9002307F5A361C1E9002307F5A363D3E997
:4037400000010CF0ABFE034687F8073507F10802D7F81435134497F807251A70D7F814350133C7F81435D7F81435FE2B9EDD68E0FB1D1B78012B64D10023C7F810355CE022
:4037800007F54272D7F8103513441B7818460CF075FB04460D46BB1D1B7818460CF06EFB02460B46104619465FA3D3E900230CF005FD02460B46204629460CF0D5FB024617
:4037C0000B4614461D467B1D1B7818460CF056FB02460B46204629460CF014FA02460B4607F5A361C1E9002307F5A363D3E900014DA3D3E900230CF047FE0346002B06D0EE
:4038000049A3D3E9002307F5A361C1E9002307F5A363D3E900010CF041FE034687F8073507F10802D7F81035134497F807251A70D7F810350133C7F81035D7F81035FE2BB7
:403840009EDDFB1D1B78022B64D10023C7F80C355CE007F50272D7F80C3513441B7818460CF00CFB04460D46BB1D1B7818460CF005FB02460B46104619462BA3D3E9002339
:403880000CF09CFC02460B46204629460CF06CFB02460B4614461D467B1D1B7818460CF0EDFA02460B46204629460CF0ABF902460B4607F5A361C1E9002307F5A363D3E9AF
:4038C000000119A3D3E900230CF0DEFD0346002B06D015A3D3E9002307F5A361C1E9002307F5A363D3E900010CF0D8FD034687F8073507F10802D7F80C35134497F80725EF
:403900001A70D7F80C350133C7F80C35D7F80C35FE2B9EDDFB1D1B78032B72D10023C7F808356AE0AFF300800000000000E06F40140B0100140C0100140D0100140E010049
:4039400007F58472D7F8083513441B7818460CF095FA04460D46BB1D1B7818460CF08EFA02460B46104619462BA3D3E900230CF025FC02460B46204629460CF0F5FA0246D3
:403980000B4614461D467B1D1B7818460CF076FA02460B46204629460CF034F902460B4607F5A361C1E9002307F5A363D3E9000119A3D3E900230CF067FD0346002B06D003
:4039C00015A3D3E9002307F5A361C1E9002307F5A363D3E900010CF061FD034687F8073507F10802D7F80835134497F807251A70D7F808350133C7F80835D7F80835FE2B2B
:403A00009EDD07F108031846FF2108F0D7FD07F5A467BD46B0BD00BF0000000000E06F4080B584B000AF03463A60FB710B46BB800023FB73FB790E2B2FD00E2B0BDC012B7D
:403A40001AD0012B02DC002B13D04DE00C2B16D00D2B19D048E0192B30D0192B04DC0F2B20D0182B27D03FE01A2B2AD0FF2B2BD03AE004F0DDF837E004F044F934E0BB88E0
:403A8000184604F07DF92FE004F0EEF903461A463B681A600123FB7326E0BB88184604F07FF921E004F0D4F903461A463B681A600123FB7318E004F055F915E004F018FA9A
:403AC00012E004F02FFA0FE0BB88013B9BB21846012103F0E1FF04F08FF803461A463B681A600123FB7300BFFB7B18461037BD4680BD00BF80B584B000AF03463A60FB7196
:403B00000B46BB800023FB73FB790E2B2FD00E2B0BDC012B1AD0012B02DC002B13D04DE00C2B16D00D2B19D048E0192B30D0192B04DC0F2B20D0182B27D03FE01A2B2AD0B1
:403B4000FF2B2BD03AE004F0FBF937E004F062FA34E0BB88184604F09BFA2FE004F00CFB03461A463B681A600123FB7326E0BB88184604F09DFA21E004F0F2FA03461A465B
:403B80003B681A600123FB7318E004F073FA15E004F036FB12E004F04DFB0FE0BB88013B9BB21846012103F077FF04F025F803461A463B681A600123FB7300BFFB7B184615
:403BC0001037BD4680BD00BF80B584B000AF03463A60FB710B46BB800023FB73FB790E2B2FD00E2B0BDC012B1AD0012B02DC002B13D04DE00C2B16D00D2B19D048E0192B2A
:403C000030D0192B04DC0F2B20D0182B27D03FE01A2B2AD0FF2B2BD03AE008F0F5FD37E008F05EFE34E0BB88184608F097FE2FE008F008FF03461A463B681A600123FB7362
:403C400026E0BB88184608F099FE21E008F0EEFE03461A463B681A600123FB7318E008F06FFE15E008F032FF12E008F049FF0FE0BB88013B9BB21846012109F02DFB09F0CF
:403C8000DBFB03461A463B681A600123FB7300BFFB7B18461037BD4680BD00BF80B584B000AF03463A60FB710B46BB800023FB73FB790E2B2FD00E2B0BDC012B1AD0012B6B
:403CC00002DC002B13D04DE00C2B16D00D2B19D048E0192B30D0192B04DC0F2B20D0182B27D03FE01A2B2AD0FF2B2BD03AE009F0BFFB37E009F028FC34E0BB88184609F047
:403D000061FC2FE009F0D2FC03461A463B681A600123FB7326E0BB88184609F063FC21E009F0B8FC03461A463B681A600123FB7318E009F039FC15E009F0FCFC12E009F0FC
:403D400013FD0FE0BB88013B9BB21846012109F0C3FA09F071FB03461A463B681A600123FB7300BFFB7B18461037BD4680BD00BF80B584B000AF03463A60FB710B46BB80B9
:403D80000023FB73FB790E2B2FD00E2B0BDC012B1AD0012B02DC002B13D04DE00C2B16D00D2B19D048E0192B30D0192B04DC0F2B20D0182B27D03FE01A2B2AD0FF2B2BD096
:403DC0003AE009F001F937E009F068F934E0BB88184609F0A1F92FE009F012FA03461A463B681A600123FB7326E0BB88184609F0A3F921E009F0F8F903461A463B681A60A4
:403E00000123FB7318E009F079F915E009F03CFA12E009F053FA0FE0BB88013B9BB21846012108F07BFE08F029FF03461A463B681A600123FB7300BFFB7B18461037BD4630
:403E400080BD00BF80B584B000AF03463A60FB710B46BB800023FB73FB790E2B2FD00E2B0BDC012B1AD0012B02DC002B13D04DE00C2B16D00D2B19D048E0192B30D0192BAD
:403E800004DC0F2B20D0182B27D03FE01A2B2AD0FF2B2BD03AE008F00DFF37E008F076FF34E0BB88184608F0AFFF2FE009F020F803461A463B681A600123FB7326E0BB887D
:403EC000184608F0B1FF21E009F006F803461A463B681A600123FB7318E008F087FF15E009F04AF812E009F061F80FE0BB88013B9BB21846012108F011FE08F0BFFE034642
:403F00001A463B681A600123FB7300BFFB7B18461037BD4680BD00BF80B584B000AF03463A60FB710B46BB800023FB73FB790E2B2FD00E2B0BDC012B1AD0012B02DC002BFE
:403F400013D04DE00C2B16D00D2B19D048E0192B30D0192B04DC0F2B20D0182B27D03FE01A2B2AD0FF2B2BD03AE005F00FFA37E005F076FA34E0BB88184605F0AFFA2FE086
:403F800005F020FB03461A463B681A600123FB7326E0BB88184605F0B1FA21E005F006FB03461A463B681A600123FB7318E005F087FA15E005F04AFB12E005F061FB0FE034
:403FC000BB88013B9BB21846012108F051FB08F0FFFB03461A463B681A600123FB7300BFFB7B18461037BD4680BD00BF80B584B000AF03463A60FB710B46BB800023FB738A
:40400000FB790E2B2FD00E2B0BDC012B1AD0012B02DC002B13D04DE00C2B16D00D2B19D048E0192B30D0192B04DC0F2B20D0182B27D03FE01A2B2AD0FF2B2BD03AE00AF090
:4040400083F937E00AF0EAF934E0BB8818460AF023FA2FE00AF094FA03461A463B681A600123FB7326E0BB8818460AF025FA21E00AF07AFA03461A463B681A600123FB738E
:4040800018E00AF0FBF915E00AF0BEFA12E00AF0D5FA0FE0BB88013B9BB21846012108F0E7FA08F095FB03461A463B681A600123FB7300BFFB7B18461037BD4680BD00BFEB
:4040C00090B585B000AF0446084611461A462346FB710346BB710B467B7113467B800023FB8100237B73FB79042B00F2A38301A252F823F009410000AB430000354800004D
:40410000BB45000035480000BB790F2B00F28D8301A252F823F000BF9B4300002B480000594100009B4300009B4300001B4200009B4300002B4800002B4800002B48000098
:404140002B4800002B480000DB4200002B4800002B4800009B4300007B79072B00F21F8101A252F823F000BF894100009B410000AD410000BF410000D1410000E341000037
:40418000F54100000742000005F0BEFE03461A463B6A1A6001237B733EE005F0B9FC03461A463B6A1A6001237B7335E005F088FD03461A463B6A1A6001237B732CE005F0E9
:4041C00037FF03461A463B6A1A6001237B7323E005F0E4FE03461A463B6A1A6001237B731AE005F0FFFD03461A463B6A1A6001237B7311E005F01AFD03461A463B6A1A6071
:4042000001237B7308E005F0C9FC03461A463B6A1A6001237B7300BFC1E07B79072B00F2C08001A252F823F0494200005B4200006D4200007F42000091420000A3420000E8
:40424000B5420000C742000005F0CEFF03461A463B6A1A6001237B733EE005F081FB03461A463B6A1A6001237B7335E005F050FA03461A463B6A1A6001237B732CE005F00A
:4042800091FA03461A463B6A1A6001237B7323E005F0D2FA03461A463B6A1A6001237B731AE005F013FB03461A463B6A1A6001237B7311E009F0A0FA03461A463B6A1A60D8
:4042C00001237B7308E009F0DDFA03461A463B6A1A6001237B7300BF63E07B79072B62D801A252F823F000BF094300001B4300002D4300003F430000514300006343000023
:40430000754300008743000005F022FD03461A463B6A1A6001237B733EE00AF005F803461A463B6A1A6001237B7335E005F0A4FD03461A463B6A1A6001237B732CE005F098
:40434000C1FE03461A463B6A1A6001237B7323E005F002FF03461A463B6A1A6001237B731AE005F08BFF03461A463B6A1A6001237B7311E005F03EFB03461A463B6A1A6097
:4043800001237B7308E005F07BFB03461A463B6A1A6001237B7300BF05E000BF45E200BF43E200BF41E200BF3FE2BB790F2B00F23E8201A252F823F0AB4500002F48000007
:4043C000F9430000AB450000AB4500008B440000AB4500002F4800002F4800002F4800002F4800002F4800001B4500002F4800002F480000AB4500007B79072B00F2D780E2
:4044000001A252F823F000BF2944000035440000414400004D4400005944000065440000714400007D4400007B88DBB2184605F033FD29E07B88DBB2184605F02FFB23E0D9
:404440007B88DBB2184605F001FC1DE07B88DBB2184605F0B3FD17E07B88DBB2184605F063FD11E07B88DBB2184605F081FC0BE07B88DBB2184605F09FFB05E07B88DBB264
:40448000184605F055FB00BF91E07B79072B00F2908001A252F823F0B9440000C5440000D1440000DD440000E9440000F5440000014500000D4500007B88DBB2184605F0E4
:4044C0005BFE29E07B88DBB2184605F00FFA23E07B88DBB2184605F0E1F81DE07B88DBB2184605F025F917E07B88DBB2184605F069F911E07B88DBB2184605F0ADF90BE010
:404500007B88DBB2184609F03DF905E07B88DBB2184609F081F900BF4BE07B79072B4AD801A252F823F000BF4945000055450000614500006D45000079450000854500001F
:40454000914500009D4500007B88DBB2184605F0C7FB29E07B88DBB2184609F0ABFE23E07B88DBB2184605F04DFC1DE07B88DBB2184605F06DFD17E07B88DBB2184605F0F2
:40458000B1FD11E07B88DBB2184605F03DFE0BE07B88DBB2184605F0F3F905E07B88DBB2184605F037FA00BF05E000BF3FE100BF3DE100BF3BE100BF39E17B88013B072B06
:4045C0002AD801A252F823F0E9450000EF450000F5450000FB45000001460000074600000D460000134600000023FB8114E00223FB8111E00423FB810EE00623FB810BE057
:404600000823FB8108E00A23FB8105E00C23FB8102E00E23FB8100BFBB790F2B00F2098101A252F823F000BF1B48000033480000694600001B4800001B480000FB46000027
:404640001B48000033480000334800003348000033480000334800008B47000033480000334800001B4800007B79072B00F2D78001A252F823F000BF99460000A54600004D
:40468000B1460000BD460000C9460000D5460000E1460000ED460000FB89DBB2184605F017FC29E0FB89DBB2184605F015FA23E0FB89DBB2184605F0E7FA1DE0FB89DBB233
:4046C000184605F099FC17E0FB89DBB2184605F049FC11E0FB89DBB2184605F067FB0BE0FB89DBB2184605F085FA05E0FB89DBB2184605F037FA00BF91E07B79072B00F2EB
:40470000908001A252F823F02947000035470000414700004D4700005947000065470000714700007D470000FB89DBB2184605F03FFD29E0FB89DBB2184605F0F5F823E09C
:40474000FB89DBB2184604F0C7FF1DE0FB89DBB2184605F00BF817E0FB89DBB2184605F04FF811E0FB89DBB2184605F093F80BE0FB89DBB2184609F023F805E0FB89DBB2C6
:40478000184609F063F800BF4BE07B79072B4AD801A252F823F000BFB9470000C5470000D1470000DD470000E9470000F5470000014800000D480000FB89DBB2184605F0A0
:4047C000ABFA29E0FB89DBB2184609F091FD23E0FB89DBB2184605F033FB1DE0FB89DBB2184605F053FC17E0FB89DBB2184605F097FC11E0FB89DBB2184605F023FD0BE082
:40480000FB89DBB2184605F0D9F805E0FB89DBB2184605F019F900BF05E000BF09E000BF07E000BF05E000BF03E000BF02E000BF00E000BF7B7B18461437BD4690BD00BF03
:4048400080B584B000AF03463A60FB710B46BB800023FB7309F08EFBFB79002B02D0FB79012B10D109F0A4FB002009F0ADFBBB88184609F0C1FB03461A463B681A6009F0D2
:404880009DFB09F08DFBFB79032B39D801A252F823F000BFA5480000AB480000C7480000D54800000123FB732AE03B681B689BB21BB2184609F0D8FB03461A463B681A6095
:4048C0000123FB731CE0BB88184609F0B3FB09F067FB15E0BB880A2B07D00C2B09D0082B0BD1082009F0B4FB07E00A2009F0B0FB03E00C2009F0ACFB00BF09F051FB00BF2D
:40490000FB7B18461037BD4680BD00BF80B584B000AF03463A60FB710B46BB800023FB730023BB60FB79032B1AD0032B06DC012B10D0012B11DC002B07D068E0182B28D055
:40494000FF2B3CD00F2B0ED061E004F033F804F0BFFA5CE004F03EF859E004F0C3FC56E004F006FD53E004F081FB04F0E7F800BF04F00EF90346002BFAD1BB88DBB21846C0
:4049800004F016F903461A463B681A600123FB733DE004F06BFB04F0D1F800BF04F0F8F80346002BFAD1BB88DBB2184604F00AFC03461A463B681A600123FB7327E004F00B
:4049C00055FB0023BB601DE004F0B8F800BF04F0DFF80346002BFAD1BB68DBB2184604F0E7F803461A46BB88934208D83B681B68BA68012101FA02F21A433B681A60BB6847
:404A00000133BB60BB68072BDED90123FB73FB7B18461037BD4680BD90B585B000AF0446084611461A462346FB710346BB710B467B7113463B710023FB600023BB72002339
:404A40007B7209F099FB012009F024FC0023FB72FB79002B04D0012B01F0BA8101F0BEB90123FB723B790F2B00F20F8301A252F823F000BFB54A00008B500000E94A0000F0
:404A80007B4C0000B14C0000E14C0000734E00008B5000008B5000008B5000008B5000008B500000A94E00008B5000008B5000003B50000097F82030072B00F2D78201A2C6
:404AC00052F823F0E54A0000E54A0000E54A0000E54A0000E54A0000E54A0000E54A0000E54A000000BFC1E297F82030072B00F2BF8201A252F823F0194B0000454B000047
:404B0000714B00009D4B0000C94B0000F54B0000214C00004D4C00000C2005F0D9F9002005F0BAF902200AF091FE012005F0B4F997F824309BB218460AF088FE002005F02B
:404B4000ABF999E00C2004F0C7FF002004F0A6FF02200AF07BFE012004F0A0FF97F824309BB218460AF072FE002004F097FF83E00C2005F089F8002005F068F802200AF0F8
:404B800065FE012005F062F897F824309BB218460AF05CFE002005F059F86DE00C2005F02BFA002005F00AFA02200AF04FFE012005F004FA97F824309BB218460AF046FEE5
:404BC000002005F0FBF957E00C2005F0CBF9002005F0AAF902200AF039FE012005F0A4F997F824309BB218460AF030FE002005F09BF941E00C2005F0D9F8002005F0B8F89B
:404C000002200AF023FE012005F0B2F897F824309BB218460AF01AFE002005F0A9F82BE00C2004F0E7FF002004F0C6FF02200AF00DFE012004F0C0FF97F824309BB21846AE
:404C40000AF004FE002004F0B7FF15E00C2004F089FF002004F06CFF02200AF0F7FD012004F066FF97F824309BB218460AF0EEFD002004F05DFF00BFFAE197F82030072B3A
:404C800000F2F88101A252F823F000BFAD4C0000AD4C0000AD4C0000AD4C0000AD4C0000AD4C0000AD4C0000AD4C000000BFE1E197F82030062B00F2DF8101A252F823F01F
:404CC000DD4C0000DD4C0000DD4C0000DD4C0000DD4C0000DD4C0000DD4C000000BFCBE197F82030072B00F2C98101A252F823F0114D00003D4D0000694D0000954D00005D
:404D0000C14D0000ED4D0000194E0000454E00000C2005F04DFA002005F02EFA02200AF095FD012005F028FA97F824309BB218460AF08CFD002005F01FFA99E00C2004F0CE
:404D4000F3FD002004F0D2FD02200AF07FFD012004F0CCFD97F824309BB218460AF076FD002004F0C3FD83E00C2004F0B5FC002004F094FC02200AF069FD012004F08EFC22
:404D800097F824309BB218460AF060FD002004F085FC6DE00C2004F0E9FC002004F0C8FC02200AF053FD012004F0C2FC97F824309BB218460AF04AFD002004F0B9FC57E041
:404DC0000C2004F01DFD002004F0FCFC02200AF03DFD012004F0F6FC97F824309BB218460AF034FD002004F0EDFC41E00C2004F051FD002004F030FD02200AF027FD012029
:404E000004F02AFD97F824309BB218460AF01EFD002004F021FD2BE00C2008F0D1FC002008F0B0FC02200AF011FD012008F0AAFC97F824309BB218460AF008FD002008F034
:404E4000A1FC15E00C2008F001FD002008F0E4FC02200AF0FBFC012008F0DEFC97F824309BB218460AF0F2FC002008F0D5FC00BF04E197F82030072B00F2028101A252F80A
:404E800023F000BFA54E0000A54E0000A54E0000A54E0000A54E0000A54E0000A54E0000A54E000000BFEBE097F82030072B00F2E98001A252F823F0D94E0000054F000017
:404EC000314F00005D4F0000894F0000B54F0000E14F00000D5000000C2004F01DFF002004F0FEFE02200AF0B1FC012004F0F8FE97F824309BB218460AF0A8FC002004F0BD
:404F0000EFFE99E00C2009F0F3F9002009F0D2F902200AF09BFC012009F0CCF997F824309BB218460AF092FC002009F0C3F983E00C2004F085FF002004F064FF02200AF0FF
:404F400085FC012004F05EFF97F824309BB218460AF07CFC002004F055FF6DE00C2005F095F8002005F074F802200AF06FFC012005F06EF897F824309BB218460AF066FC6D
:404F8000002005F065F857E00C2005F0C9F8002005F0A8F802200AF059FC012005F0A2F897F824309BB218460AF050FC002005F099F841E00C2005F045F9002005F024F964
:404FC00002200AF043FC012005F01EF997F824309BB218460AF03AFC002005F015F92BE00C2004F0EBFC002004F0CAFC02200AF02DFC012004F0C4FC97F824309BB21846B4
:405000000AF024FC002004F0BBFC15E00C2004F01BFD002004F0FEFC02200AF017FC012004F0F8FC97F824309BB218460AF00EFC002004F0EFFC00BF24E097F82030072BB3
:4050400022D801A252F823F0695000006950000069500000695000006950000069500000695000006950000000BF0DE000BF0CE000BF0AE000BF08E000BF06E000BF04E07F
:4050800000BF02E000BF00E000BFBB790F2B00F2A48601A252F823F0D9500000DB5D00000F510000FD54000033550000635500004B590000DB5D0000DB5D0000DB5D0000C9
:4050C000DB5D0000DB5D00007D590000DB5D0000DB5D0000675D00007B79072B00F25C8601A252F823F000BF09510000095100000951000009510000095100000951000061
:40510000095100000951000000BF00F045BE7B79072B00F2438601A252F823F03D510000B151000025520000995200000D53000081530000F553000085540000002009F0C8
:40514000A9F8022004F0C4FE07E0BA4B1B78DBB203F01003002B00D006E009F051F80346DBB25BB2002BF0DA012009F093F801200AF06CFB002009F08DF811E0AD4B1B7868
:40518000DBB203F01003002B0AD109F045F803461C4609F06FF80346E31A0233FB6006E009F02EF80346DBB25BB2002BE6DAA3E1002009F06FF8022004F08EFC07E09E4BF8
:4051C0001B78DBB203F01003002B00D006E009F017F80346DBB25BB2002BF0DA012009F059F801200AF032FB002009F053F811E0914B1B78DBB203F01003002B0AD109F0BF
:405200000BF803461C4609F035F80346E31A0233FB6006E008F0F4FF0346DBB25BB2002BE6DA69E1002009F035F8022004F02CFD07E0824B1B78DBB203F01003002B00D081
:4052400006E008F0DDFF0346DBB25BB2002BF0DA012009F01FF801200AF0F8FA002009F019F811E0754B1B78DBB203F01003002B0AD108F0D1FF03461C4608F0FBFF0346A9
:40528000E31A0233FB6006E008F0BAFF0346DBB25BB2002BE6DA2FE1002008F0FBFF022004F0AAFE07E0664B1B78DBB203F01003002B00D006E008F0A3FF0346DBB25BB200
:4052C000002BF0DA012008F0E5FF01200AF0BEFA002008F0DFFF11E0594B1B78DBB203F01003002B0AD108F097FF03461C4608F0C1FF0346E31A0233FB6006E008F080FF0E
:405300000346DBB25BB2002BE6DAF5E0002008F0C1FF022004F026FE07E04A4B1B78DBB203F01003002B00D006E008F069FF0346DBB25BB2002BF0DA012008F0ABFF012019
:405340000AF084FA002008F0A5FF11E03D4B1B78DBB203F01003002B0AD108F05DFF03461C4608F087FF0346E31A0233FB6006E008F046FF0346DBB25BB2002BE6DABBE075
:40538000002008F087FF022004F010FD07E02E4B1B78DBB203F01003002B00D006E008F02FFF0346DBB25BB2002BF0DA012008F071FF01200AF04AFA002008F06BFF11E06C
:4053C000214B1B78DBB203F01003002B0AD108F023FF03461C4608F04DFF0346E31A0233FB6006E008F00CFF0346DBB25BB2002BE6DA81E0002008F04DFF022004F0FAFBAF
:4054000007E0124B1B78DBB203F01003002B00D006E008F0F5FE0346DBB25BB2002BF0DA012008F037FF01200AF010FA002008F031FF1FE0105000401150004012500040C0
:4054400013500040145000401550004016500040C34B1B78DBB203F01003002B0AD108F0DBFE03461C4608F005FF0346E31A0233FB6006E008F0C4FE0346DBB25BB2002B64
:40548000E6DA39E0002008F005FF022004F06AFB07E0B44B1B78DBB203F01003002B00D006E008F0ADFE0346DBB25BB2002BF0DA012008F0EFFE01200AF0C8F9002008F01A
:4054C000E9FE11E0A74B1B78DBB203F01003002B0AD108F0A1FE03461C4608F0CBFE0346E31A0233FB6006E008F08AFE0346DBB25BB2002BE6DA00BF00F050BC7B79072BC8
:4055000000F24E8401A252F823F000BF2D5500002D5500002D5500002D5500002D5500002D5500002D5500002D55000000BF00F037BC7B79062B00F2358401A252F823F066
:405540005D5500005D5500005D5500005D5500005D5500005D5500005D55000000BF00F021BC7B79072B00F21F8401A252F823F0915500000556000079560000ED560000B3
:4055800079570000ED57000061580000D5580000002008F07FFE022004F00AFE07E0724B1B78DBB203F01003002B00D006E008F027FE0346DBB25BB2002BF0DA012008F085
:4055C00069FE01200AF042F9002008F063FE11E0654B1B78DBB203F01003002B0AD108F01BFE03461C4608F045FE0346E31A0233FB6006E008F004FE0346DBB25BB2002BED
:40560000E6DAA1E1002008F045FE022004F08CF907E0564B1B78DBB203F01003002B00D006E008F0EDFD0346DBB25BB2002BF0DA012008F02FFE01200AF008F9002008F06F
:4056400029FE11E0494B1B78DBB203F01003002B0AD108F0E1FD03461C4608F00BFE0346E31A0233FB6006E008F0CAFD0346DBB25BB2002BE6DA67E1002008F00BFE0220FC
:4056800004F02AF807E03A4B1B78DBB203F01003002B00D006E008F0B3FD0346DBB25BB2002BF0DA012008F0F5FD01200AF0CEF8002008F0EFFD11E02D4B1B78DBB203F075
:4056C0001003002B0AD108F0A7FD03461C4608F0D1FD0346E31A0233FB6006E008F090FD0346DBB25BB2002BE6DA2DE1002008F0D1FD022004F03AF807E01E4B1B78DBB2C9
:4057000003F01003002B00D006E008F079FD0346DBB25BB2002BF0DA012008F0BBFD01200AF094F8002008F0B5FD11E0114B1B78DBB203F01003002B0AD108F06DFD0346D6
:405740001C4608F097FD0346E31A0233FB6006E008F056FD0346DBB25BB2002BE6DAF3E0165000401750004028500040295000402A5000402B500040002008F08BFD02209E
:4057800004F03EF807E0C34B1B78DBB203F01003002B00D006E008F033FD0346DBB25BB2002BF0DA012008F075FD01200AF04EF8002008F06FFD11E0B64B1B78DBB203F04E
:4057C0001003002B0AD108F027FD03461C4608F051FD0346E31A0233FB6006E008F010FD0346DBB25BB2002BE6DAADE0002008F051FD022004F04EF807E0A74B1B78DBB2AC
:4058000003F01003002B00D006E008F0F9FC0346DBB25BB2002BF0DA012008F03BFD01200AF014F8002008F035FD11E09A4B1B78DBB203F01003002B0AD108F0EDFC0346CE
:405840001C4608F017FD0346E31A0233FB6006E008F0D6FC0346DBB25BB2002BE6DA73E0002008F017FD022007F0AAFF07E08B4B1B78DBB203F01003002B00D006E008F069
:40588000BFFC0346DBB25BB2002BF0DA012008F001FD012009F0DAFF002008F0FBFC11E07E4B1B78DBB203F01003002B0AD108F0B3FC03461C4608F0DDFC0346E31A0233B8
:4058C000FB6006E008F09CFC0346DBB25BB2002BE6DA39E0002008F0DDFC022007F0B6FF07E06F4B1B78DBB203F01003002B00D006E008F085FC0346DBB25BB2002BF0DA38
:40590000012008F0C7FC012009F0A0FF002008F0C1FC11E0624B1B78DBB203F01003002B0AD108F079FC03461C4608F0A3FC0346E31A0233FB6006E008F062FC0346DBB29C
:405940005BB2002BE6DA00BF2EE27B79072B00F22D8201A252F823F0795900007959000079590000795900007959000079590000795900007959000000BF17E27B79072B2B
:4059800000F2168201A252F823F000BFAD590000215A0000AD5A0000215B0000955B0000095C00007D5C0000F15C0000002008F071FC022004F0B0F907E03A4B1B78DBB24F
:4059C00003F01003002B00D006E008F019FC0346DBB25BB2002BF0DA012008F05BFC012009F034FF002008F055FC11E02D4B1B78DBB203F01003002B0AD108F00DFC0346D6
:405A00001C4608F037FC0346E31A0233FB6006E008F0F6FB0346DBB25BB2002BE6DAA1E1002008F037FC022008F062FC07E01E4B1B78DBB203F01003002B00D006E008F0D2
:405A4000DFFB0346DBB25BB2002BF0DA012008F021FC012009F0FAFE002008F01BFC11E0114B1B78DBB203F01003002B0AD108F0D3FB03461C4608F0FDFB0346E31A0233A8
:405A8000FB6006E008F0BCFB0346DBB25BB2002BE6DA67E12C5000402D5000402E5000402F5000406050004061500040002008F0F1FB022004F0C4F907E0BF4B1B78DBB221
:405AC00003F01003002B00D006E008F099FB0346DBB25BB2002BF0DA012008F0DBFB012009F0B4FE002008F0D5FB11E0B24B1B78DBB203F01003002B0AD108F08DFB0346D5
:405B00001C4608F0B7FB0346E31A0233FB6006E008F076FB0346DBB25BB2002BE6DA21E1002008F0B7FB022004F0B0FA07E0A34B1B78DBB203F01003002B00D006E008F006
:405B40005FFB0346DBB25BB2002BF0DA012008F0A1FB012009F07AFE002008F09BFB11E0964B1B78DBB203F01003002B0AD108F053FB03461C4608F07DFB0346E31A023324
:405B8000FB6006E008F03CFB0346DBB25BB2002BE6DAE7E0002008F07DFB022004F0C0FA07E0874B1B78DBB203F01003002B00D006E008F025FB0346DBB25BB2002BF0DAD0
:405BC000012008F067FB012009F040FE002008F061FB11E07A4B1B78DBB203F01003002B0AD108F019FB03461C4608F043FB0346E31A0233FB6006E008F002FB0346DBB208
:405C00005BB2002BE6DAADE0002008F043FB022004F018FB07E06B4B1B78DBB203F01003002B00D006E008F0EBFA0346DBB25BB2002BF0DA012008F02DFB012009F006FEA8
:405C4000002008F027FB11E05E4B1B78DBB203F01003002B0AD108F0DFFA03461C4608F009FB0346E31A0233FB6006E008F0C8FA0346DBB25BB2002BE6DA73E0002008F0FD
:405C800009FB022003F09AFE07E04F4B1B78DBB203F01003002B00D006E008F0B1FA0346DBB25BB2002BF0DA012008F0F3FA012009F0CCFD002008F0EDFA11E0424B1B7837
:405CC000DBB203F01003002B0AD108F0A5FA03461C4608F0CFFA0346E31A0233FB6006E008F08EFA0346DBB25BB2002BE6DA39E0002008F0CFFA022003F0A6FE07E0334BE6
:405D00001B78DBB203F01003002B00D006E008F077FA0346DBB25BB2002BF0DA012008F0B9FA012009F092FD002008F0B3FA11E0264B1B78DBB203F01003002B0AD108F05B
:405D40006BFA03461C4608F095FA0346E31A0233FB6006E008F054FA0346DBB25BB2002BE6DA00BF24E07B79072B23D801A252F823F000BF955D0000955D0000955D000043
:405D8000955D0000955D0000955D0000955D0000955D000000BF0DE000BF1EE000BF1CE000BF1AE000BF18E000BF16E000BF14E000BF12E000BF10E06250004063500040E8
:405DC000645000406550004066500040675000403B8D184608F02CFA00E000BF012008F059FA08F0D9F9FB6AFA681A60FB7A18461437BD4690BD00BF80B483B000AF0346E7
:405E00003960FB80FA883B681A60012318460C37BD465DF8047B704790B583B000AF0446084611461A462346FB710346BB800B46BB711346FB70FB79062B36D801A252F8AC
:405E400023F000BF615E0000675E00006D5E00007D5E0000895E0000935E00009F5E000007F01EFD21E007F0C1FD1EE0BA79FB7810461946BA6900F08BF816E0BB88184603
:405E8000B96900F017F810E0BB88184607F092FE0BE0BB791846B96900F02EF805E0FB781846B96900F04EF800BF002318460C37BD4690BD80B584B000AF03463960FB809E
:405EC0000023FB6011E0FB68184600213A6807F04DFE00BF07F074FD0346002BFAD0012007F01AFDFB680133FB60FA88FB689A42E9D21037BD4680BD80B584B000AF034683
:405F00003960FB710023FB600023FB6014E0FB79DA00FB681344184600213A6807F026FE00BF07F04DFD0346002BFAD0012007F0F3FCFB680133FB60FB68072BE7DD103751
:405F4000BD4680BD80B584B000AF03463960FB710023FB600023FB6014E0FA79FB68DB001344184600213A6807F000FE00BF07F027FD0346002BFAD0012007F0CDFCFB6811
:405F80000133FB60FB68042BE7DD1037BD4680BD80B582B000AF03463A60FB710B46BB71FB79DA00BB791344184600213A6807F0DDFD00BF07F004FD0346002BFAD00120B2
:405FC00007F0AAFC0837BD4680BD00BF80B582B002AF0020012104F061F900BF04F0E0FA0346002BFAD004F07DFC06F0BFF8084B04221A70064B00225A70054B00225A80AD
:40600000034B002200920FCBFCF754FEBD4680BD3482FF1F90B585B000AF7860786804F0BFFC0346FB737B681B78FF2B01D0002319E0FB7B013B7A6813441C78FB7B013B26
:40604000DBB27868194600F013F803469C4201D0002308E07B6801331B78FA7B9A4201D0002300E0012318461437BD4690BD00BF80B485B000AF78600B46FB700023FB736E
:406080000023BB7309E0BB7B7A6813441A78FB7B1344FB73BB7B0133BB73BA7BFB789A42F1D3FB7B18461437BD465DF8047B704780B487B000AFF860B9603B601346FB71F2
:4060C000FB79FB753DE0BB681B781A46FB681344BA6812781146FA680A441178F879FA7D821A386AD0403A681278C2F1080200FA02F2D2B20A43D2B21A703B681B78FA7DFA
:406100009A4209D23B681A78FB7DD31ADAB23B681A700023FB7514E03B681B78FA7DD31AFB753B6808221A70BB681B780133DAB2BB681A70BB681B781A46FB681344002258
:406140001A70FB7D002BBED11C37BD465DF8047B704700BF90B59FB002AF78603960002387F86F30002387F82B307B6804331B781B029AB27B6805331B789BB213439BB21B
:40618000A7F86C30B7F86C3040F24112934201F2648001A151F823F0637200005B7200005B720000A1660000B7660000D3660000F56600005B72000017670000BB69000094
:4061C000F5690000156A000063720000637200006372000063720000637200005B720000F76A0000416B00005B7200005B7200005B7200005B7200005B7200005B720000F1
:406200005B7200005B7200005B7200005B7200005B7200005B7200005B7200005B7200005B7200005B720000596B0000716B00005B7200005B7200005B7200005B72000088
:406240005B7200005B7200005B7200005B7200005B7200005B7200005B7200005B7200005B7200005B7200005B7200005B7200005B7200005B7200005B7200005B7200004E
:406280005B7200005B7200005B7200005B7200005B7200005B7200005B720000AB6B0000AD6C00005B7200005B7200005B7200005B7200005B7200005B7200005B72000079
:4062C0005B7200005B7200005B7200005B7200005B7200005B7200005B7200005B7200005B7200005B7200005B7200005B7200005B7200005B7200005B7200005B720000CE
:406300005B7200005B7200005B7200005B7200005B7200005B7200005B720000D76D00005B7200005B720000F76D0000B96E00005B7200005B7200005B7200005B72000025
:406340005B7200005B7200005B7200005B7200005B7200005B7200005B7200005B7200005B7200005B7200005B7200005B7200005B7200005B7200005B7200005B7200004D
:406380005B7200005B7200005B7200005B7200005B7200005B7200005B7200005B7200005B720000376F00005B7200005B7200005B7200005B7200005B7200005B72000034
:4063C0005B7200005B7200005B7200005B7200005B7200005B7200005B7200005B7200005B7200005B7200005B7200005B7200005B7200005B7200005B7200005B720000CD
:406400005B7200005B7200005B7200005B7200005B7200005B7200004D700000897000005B7200005B7200005B7200005B7200005B7200005B7200005B7200005B72000070
:406440005B7200005B7200005B7200005B7200005B7200005B7200005B7200005B7200005B7200005B7200005B7200005B7200005B7200005B7200005B7200005B7200004C
:406480005B7200005B7200005B7200005B7200005B7200005B7200005B7200005B7200005B7200005B7200005B7200005B7200005B7200005B7200005B7200005B7200000C
:4064C0005B7200005B7200005B7200005B7200005B7200005B7200005B7200005B7200005B7200005B7200005B7200005B7200005B7200005B7200005B7200005B720000CC
:406500005B7200005B7200005B7200005B7200005B7200005B7200001B7100005B72000025710000397100004D7100005B7200005B7200005B7200005B7200005B72000035
:406540005B7200005B7200005B7200005B7200005B7200005B7200005B7200005B7200005B7200005B7200005B7200005B7200005B7200005B7200005B7200005B7200004B
:406580005B7200005B7200005B7200005B7200005B7200005B720000577100005B7200005B7200005B7200005B7200005B7200005B720000697100005B7200005B72000003
:4065C0005B7200005B7200005B7200005B7200005B7200005B7200005B7200005B7200005B7200005B7200005B7200005B7200005B7200005B7200005B7200005B720000CB
:406600005B7200005B7200005B7200005B7200005B7200005B7200005B7200005B7200005B7200005B7200005B7200005B7200005B7200005B7200005B7200005B7200008A
:406640005B7200005B7200005B7200005B7200005B7200005B7200005B7200005B7200005B7200005B7200005B7200005B7200005B7200005B7200005B7200005B7200004A
:406680005B7200005B7200005B7200005B7200005B7200005B72000073710000FB710000022387F82B30FF2387F82C30002387F82D3000F0D7BD032387F82B30032387F898
:4066C0002C30002387F82D30002387F82E3000F0C9BD042387F82B30002387F82C30002387F82D30252387F82E30802387F82F3000F0B8BD042387F82B30002387F82C30C1
:40670000002387F82D30252387F82E30802387F82F3000F0A7BD97F82B3007F170021344142203F8442C97F82B300133DBB287F82B3097F82B3007F170021344152203F8B2
:40674000442C97F82B300133DBB287F82B3097F82B3007F170021344162203F8442C97F82B300133DBB287F82B3097F82B3007F170021344172203F8442C97F82B300133E4
:40678000DBB287F82B3097F82B3007F170021344182203F8442C97F82B300133DBB287F82B3097F82B3007F170021344192203F8442C97F82B300133DBB287F82B3097F838
:4067C0002B3007F1700213441A2203F8442C97F82B300133DBB287F82B3097F82B3007F1700213441B2203F8442C97F82B300133DBB287F82B3097F82B3007F170021344CE
:40680000322203F8442C97F82B300133DBB287F82B3097F82B3007F170021344332203F8442C97F82B300133DBB287F82B3097F82B3007F170021344342203F8442C97F829
:406840002B300133DBB287F82B3097F82B3007F170021344352203F8442C97F82B300133DBB287F82B3097F82B3007F170021344362203F8442C97F82B300133DBB287F898
:406880002B3097F82B3007F170021344372203F8442C97F82B300133DBB287F82B3097F82B3007F170021344382203F8442C97F82B300133DBB287F82B3097F82B3007F1B2
:4068C00070021344392203F8442C97F82B300133DBB287F82B3097F82B3007F170021344782203F8442C97F82B300133DBB287F82B3097F82B3007F170021344792203F80E
:40690000442C97F82B300133DBB287F82B3097F82B3007F1700213447A2203F8442C97F82B300133DBB287F82B3097F82B3007F1700213447B2203F8442C97F82B3001335A
:40694000DBB287F82B3097F82B3007F1700213447C2203F8442C97F82B300133DBB287F82B3097F82B3007F1700213447D2203F8442C97F82B300133DBB287F82B3097F8AE
:406980002B3007F1700213447E2203F8442C97F82B300133DBB287F82B3097F82B3007F1700213447F2203F8442C97F82B300133DBB287F82B3000F055BC082387F82B30E9
:4069C000002387F86E300FE097F86E3097F86E200132D2B207F170010B4403F8442C97F86E30013387F86E3097F86E30072BEBD900F038BC97F82B3007F1700213440122F1
:406A000003F8442C97F82B300133DBB287F82B3000F028BC97F82B3007F170021344012203F8442C97F82B300133DBB287F82B3097F82B3007F170021344022203F8442C9A
:406A400097F82B300133DBB287F82B3097F82B3007F170021344032203F8442C97F82B300133DBB287F82B3097F82B3007F170021344042203F8442C97F82B300133DBB2EA
:406A800087F82B3097F82B3007F170021344052203F8442C97F82B300133DBB287F82B3097F82B3007F170021344062203F8442C97F82B300133DBB287F82B3097F82B308D
:406AC00007F170021344072203F8442C97F82B300133DBB287F82B3097F82B3007F170021344082203F8442C97F82B300133DBB287F82B30B6E37B6806331B781846002130
:406B0000002205F039FBB8667B6807331B7818460021012205F030FB7866BB6E042B0AD0BB6EB3F1FF3F06D07B6E042B03D07B6EB3F1FF3F03D1032387F86F3092E391E3D2
:406B4000022387F82B30B64B1B7887F82C30B54B1B7887F82D3085E307F12C03B24A92E80300186004331980052387F82B3079E397F82B3007F170021344012203F8442C51
:406B800097F82B300133DBB287F82B3097F82B3007F170021344022203F8442C97F82B300133DBB287F82B305CE3002387F86E3074E097F86E3007331A467B6813441B782A
:406BC0009A4AA2FB0323DB0887F8633097F86E3007331A467B6813441A78944BA3FB0213D9080B469B000B445B00D31A87F862307B6806331B78073397F86E20D208D2B2FB
:406C000013441A467B6813441B781A4697F86E3003F0070342FA03F303F00103002B14BF0123002387F86130814B16221A70804B03225A7097F8623003F00703D9B27C4A11
:406C4000137961F30613137197F8633003F00F03D9B2774A137961F303031371744B07225A8000237B62724B07F1240200920FCBFCF720F86E4B01225A7097F861309AB294
:406C80006B4B5A806A4B07F1240200920FCBFCF711F897F86E30013387F86E307B6806331B7897F86E209A4283D3DBE2002387F86E3086E097F86E3006331A467B6813442A
:406CC0001B785A4AA2FB0323DB0887F8603097F86E3006331A467B6813441A78534BA3FB0213D9080B469B000B445B00D31A87F85F304F4B16221A704D4B03225A7097F8E1
:406D00005F3003F00703D9B2494A137961F30613137197F8603003F00F03D9B2444A137961F303031371424B02225A8000233B623F4B07F1200200920FCBFBF7BBFF3C4BF7
:406D400000225A703A4B07F1200200920FCBFBF7B1FF97F86E3003F00703DBB2002B0FD197F86E30DB08DBB207F170021344002203F8442C97F82B300133DBB287F82B3048
:406D800097F86E30DB08DBB2184607F17002134413F8442C3B6A03F0010197F86E30DB4303F0070301FA03F3DBB21343DAB207F17003034403F8442C97F86E30013387F85D
:406DC0006E3097F86E207B6801331B78073B9A42FFF670AF46E2042387F82B30002387F82C304C2387F82D304B2387F82E30402387F82F3036E2012387F82B300C2387F83A
:406E00002C300823FB7797F82B3007F170021344002203F8442C002387F86E3039E000BF0080004001800040140F0100CDCCCCCC3482FF1F97F86E3006331A467B6813445F
:406E40001B78013B87F85E30C54B17221A70C44B00225A7097F85E309AB2C14B5A80C04B07F1180200920FCBFBF724FFBB6907F12C0107F12B0207F11F04009308461146BA
:406E80000C222346FFF714F997F86E30013387F86E3097F86E207B6801331B78073B9A42C8DBFB7F002B05D097F82B300133DBB287F82B3000BFD5E1002387F86E3032E06C
:406EC00097F86E3007331A467B6813441B78013B87F85D307B6806331B78DA1D97F86E3013441A467B6813441B7887F85C3097F85D300433DAB29A4B1A70994B04225A7032
:406F000097F85C309AB2964B5A8000237B61944B07F1140200920FCBFBF7CCFE97F86E30013387F86E307B6806331B7897F86E209A42C5D396E1002387F86E307DE097F8BA
:406F40006E3007331A467B6813441B78013B87F85B307B6806331B78DA1D97F86E3013441A467B6813441B7887F85A3097F85B30072B33D801A252F823F000BF9D6F000044
:406F8000A56F0000AD6F0000B56F0000BD6F0000C56F0000CD6F0000D56F0000704B09221A701BE06E4B0A221A7017E06C4B0B221A7013E06A4B0C221A700FE0684B0D222D
:406FC0001A700BE0664B0E221A7007E0644B0F221A7003E0624B10221A7000BF604B0D225A705F4B07F1100200920FCBFBF762FE97F85A303A6902FB03F35A4AA2FB032329
:40700000DB099AB2564B5A80554B00225A70544B07F1100200920FCBFBF74CFE504B0E225A704F4B07F1100200920FCBFBF742FE97F86E30013387F86E307B6806331B78C4
:4070400097F86E209A42FFF47AAF0BE1002387F86E3011E097F86E3007331A467B6813441B7887F85930032387F86F3000BF97F86E30013387F86E307B6806331B7897F883
:407080006E209A42E6D3EDE0012387F82B30102387F82C300823FB7397F82B3007F170021344002203F8442C002387F86E3021E097F86E3006331A467B6813441B7887F8B0
:4070C000583000237B65032387F86F3000BF7B6D07F12C0107F12B0207F10F0400930846114610222346FEF7E3FF97F86E30013387F86E3097F86E207B6801331B78073B94
:407100009A42D5DBFB7B002B05D097F82B300133DBB287F82B3000BFA4E0032387F86F3000BF9FE097F86F30002B00D09AE0032387F86F3000BF95E097F86F30002B00D0BF
:4071400090E0032387F86F3000BF8BE0032387F86F3000BF86E0032387F86F3000BF81E03482FF1F81808080032387F86F3000BF78E07B6807331B78002B08D17B68083362
:407180001B78012B03D8032387F86F306AE0002387F86E3029E097F86E3009331A467B68134418787B6807331A787B6808331B78194697F86E300B44002B00DA0F331B111D
:4071C000DBB21344D9B27B6808331A7897F86E301344DBB203F00F03DBB21A4604F0CCFF97F86E30013387F86E307B6806331B7897F86E209A42CED334E0002387F86E3093
:4072000023E097F82B3019467B6807331B781B011A467B6808331B781A4497F86E30134403F1804303F500431A7807F170030B4403F8442C97F82B300133DBB287F82B3015
